:020000040000FA
:10000000422821308C008C0B03280800012008288E
:100010001F308D008D0B0A280800831606138617E3
:1000200083120617080090008F010613062006139E
:100030001018061706200310100C90008F0A0830C5
:100040000F02031D172806170620080091019201D0
:10005000861B2828062001200310120C9200921300
:10006000861B92170620910A08301102031D2C28C6
:10007000861F3E2801201208080041280120003078
:10008000080008000D208312483013204F30132041
:100090004C30132041301320203013204D301320DA
:1000A000553013204E301320443013204F3013208E
:1000B0000A3013200D301320262013205C28630003
:00000001FF
;PIC16F84A
