:020000040000FA
:100000002729A401A500A40AA50AA50B0828A40B6A
:100010000A280800FA30FF3E0D280E28031D0B2881
:10002000052886008514013001208510023001204A
:10003000080005100F081120080005141120080001
:100040009108031D29281208803E003E8F001920C8
:10005000462801301102031D33281208803E403E1D
:100060008F001920462802301102031D3D28120876
:10007000803E143E8F001920462803301102031DD4
:1000800046281208803E543E8F0019200800023096
:100090008F001920080001308F00192008000E3051
:1000A0008F00192008000D308F00192008000F3034
:1000B0008F00192008000C308F001920080008302C
:1000C0008F00192008000C308F001920080008301C
:1000D0009400131C6E28043014079400931C742899
:1000E0000230831214079400131D7A280130831202
:1000F00014079400831214088F00192008001C3084
:100100008F001920080018308F00192008001430C3
:100110008F001920080010308F00192008000730C8
:10012000150595000310150DA5000310A50D03106E
:10013000250D95001508403E8F00192016081D203A
:1001400017081D2018081D2019081D201A081D2039
:100150001B081D201C081D201D081D204B20080009
:10016000831686010510851083121F088C001E0857
:100170008D00C8300120051085101430012030306A
:100180008F0019200530012030308F0019200130F8
:10019000012030308F00192038308F0019200830AE
:1001A0008F00192001308F00192006308F00192090
:1001B0000C308F00192002308F001920080022080F
:1001C000003C0318E72832300120A203DF28080092
:1001D00050301D2069301D2063301D2050301D20FF
:1001E00061301D2073301D2020301D2030301D2037
:1001F0002E301D2037301D202E301D2036301D2082
:10020000080044301D2045301D204D301D204F304A
:100210001D2020301D204C301D2043301D20443037
:100220001D204C301D2069301D2062301D2008002B
:100230002308003C031826295F200A30A200DF2093
:1002400063200A30A200DF20A30318290800103021
:100250009E0002309F00B0208312950196010A3063
:1002600097009801990111309A000E309B009C0173
:100270009D018F200130950096010A30970098016A
:1002800099019A010E309B0011309C009D018F2036
:10029000013091009201202001211430A200DF20C2
:1002A00047201314931413116720831248301D2024
:1002B0004F301D204C301D2041301D201430A20035
:1002C000DF2053202830A200DF20572020301D20BF
:1002D0000330A200DF204D301D200330A200DF20BC
:1002E00055301D200330A200DF204E301D2003308A
:1002F000A200DF2044301D200330A200DF204F3059
:100300001D200530A200DF20A0012008053C031CB1
:100310008F2987200A30A200DF20A00A8529A001AA
:100320002008053C031C9A290A30A200DF208B20FC
:10033000A00A90294F20A0012008023C031CA729F5
:100340000530A200DF202E301D20A00A9C290A3093
:10035000A200DF200330A30018210330A200DF2019
:100360005B2000301D208B201430A200DF200130E4
:100370001D200330A200DF20A00120080F3C031C39
:10038000C7297F200130A200DF20A00ABD29A001DB
:1003900020080F3C031CD22983200130A200DF205B
:1003A000A00AC82987208720E820A00120080D3C4A
:1003B000031CE02983200130A200DF20A00AD629F7
:1003C0000630A200DF200330A30018214B2091014A
:1003D000023092002020E8200630A200DF20013009
:1003E000A1002108053C031C442AA0012008073C69
:1003F000031C0F2A013091002008073C92002020A6
:100400003C301D20013091002008083E9200202041
:100410003E301D200330A200DF20A00AF629A001F3
:100420002008073C031C292A013091002008073CC2
:100430009200202020301D20013091002008083E2D
:100440009200202020301D200330A200DF20A00ACF
:10045000102AA0012008073C031C422A0130910009
:100460002008920020203E301D20013091002008FD
:100470000F3C920020203C301D200330A200DF20E2
:10048000A00A2A2AA10AF1290330A400E830022098
:0E0490004B200330A400E8300220482963000E
:00000001FF
;PIC16F84A
