:020000040000FA
:10000000CA28A001AD00A00AAD0AAD0B0828A00BBC
:100010000A280800FA30FF3E0D280E28031D0B2881
:1000200005282108633C03181728EE3008008312C6
:100030000313A2012108093C0318252810302207C8
:10004000A2000A302102A1001A2821082207A200DA
:100050002208080008000F30A7002730A800240855
:100060002802031D35282308270203183B28EE30F9
:10007000A000EE300800A501A60183120313E730AB
:10008000A7000330A80024082802031D49282308DC
:1000900027020318602810302607A000003025072B
:1000A0000318A00AA5002008A60003302402A0001F
:1000B000E8302302031CA003A3002008A400432867
:1000C000A8016330A70024082802031D692823081B
:1000D00027020318802801302607A00000302507DA
:1000E0000318A00AA5002008A60000302402A000E2
:1000F00064302302031CA003A3002008A40063288B
:100100002308093C0318992800302607A000103066
:1001100025070318A00AA5002008A6000030240225
:10012000A0000A302302031CA003A3002008A4009F
:10013000802826082407A000250823070318A00A02
:10014000A5002008A6002608A00025080800080031
:10015000AC082E1003192E1464302B020130030555
:100160002E1C0311031DBB282B08A1001120831294
:100170000313AB00C5282B08A3002C08A4002B20D8
:1001800083120313AB002008AC002B0887002C0857
:1001900088000800073083169F0083129F01831692
:1001A00087018801831287018801A901AA01290812
:1001B000AB002A08AC00A82083120313A90A031974
:1001C000AA0A2A08003C0318EE282A08A000643076
:1001D00029070318A00AA9002008AA008312031304
:1001E0002A08403C0318F628A901AA013230012050
:0801F00083120313D7286300FA
:00000001FF
;PIC16F877A
