:020000040000FA
:10000000EA28A001AB00A00AAB0AAB0B0828A00BA2
:100010000A280800FA30FF3E0D280E28031D0B2881
:1000200005282108633C03181728EE3008008312C6
:100030000313A2012108093C0318252810302207C8
:10004000A2000A302102A1001A2821082207A200DA
:100050002208080008002408273C013003052C1062
:1000600003192C1427302402AC100319AC142308F4
:100070000F3C01300305AC1C03112C180315031DA4
:100080004528EE30A000EE300800A501A60183123D
:1000900003132408033C013003052C1003192C140E
:1000A00003302402AC100319AC142308E73C0130E0
:1000B0000305AC1C03112C180315031D7628103002
:1000C0002607A000003025070318A00AA500200875
:1000D000A60003302402A000E8302302031CA00382
:1000E000A3002008A4008316031747282408003C17
:1000F000013003052C1003192C14A408AC100319AB
:10010000AC142308633C01300305AC1C03112C180C
:100110000315031DA02801302607A0000030250785
:100120000318A00AA5002008A60000302402A000A1
:1001300064302302031CA003A3002008A400762837
:100140002308093C0318B92800302607A000103006
:1001500025070318A00AA5002008A60000302402E5
:10016000A0000A302302031CA003A3002008A4005F
:10017000A02826082407A000250823070318A00AA2
:10018000A5002008A6002608A000250808000800F1
:10019000AA082C1003192C1464302902013003051D
:1001A0002C1C0311031DDB282908A1001120831238
:1001B0000313A900E5282908A3002A08A4002B207E
:1001C00083120313A9002008AA00290887002A081F
:1001D00088000800073083169F0083129F01831652
:1001E00087018801831287018801A701A8012708D8
:1001F000A9002808AA00C82083120313A70A03191C
:10020000A80A2808003C03180E292808A00064301A
:1002100027070318A00AA7002008A80083120313C9
:100220002808403C03181629A701A80132300120F4
:0802300083120313F728630099
:00000001FF
;PIC16F877A
