:020000040000FA
:10000000B728A001AB00A00AAB0AAB0B0828A00BD5
:100010000A280800FA30FF3E0D280E28031D0B2881
:1000200005282108633C03181728EE300800A201B8
:100030002108093C0318232810302207A2000A30A7
:100040002102A100182821082207A2002208080086
:1000500008002408273C031D2F2823080F3C031801
:100060003528EE30A000EE300800A501A6012408D6
:10007000033C031D3D282308E73C03185428103097
:100080002607A000003025070318A00AA5002008B5
:10009000A60003302402A000E8302302031CA003C2
:1000A000A3002008A40037282408003C031D5A2878
:1000B0002308633C0318712801302607A000003094
:1000C00025070318A00AA5002008A6000030240276
:1000D000A00064302302031CA003A3002008A40096
:1000E00054282308093C03188A2800302607A0005A
:1000F000103025070318A00AA5002008A60000302C
:100100002402A0000A302302031CA003A30020083D
:10011000A400712826082407A00025082307031837
:10012000A00AA5002008A6002608A00025080800AF
:100130000800AA082C1003192C146430290201307D
:1001400003052C1C0311031DAA282908A100112056
:10015000A900B2282908A3002A08A4002920A90080
:100160002008AA00290887002A088800080007300C
:1001700083169F0083129F018316870188018312D3
:1001800087018801A701A8012708A9002808AA005B
:100190009920A70A0319A80A2808003C0318D9289F
:1001A0002808A000643027070318A00AA700200829
:1001B000A8002808403C0318DF28A701A801323016
:0601C0000120C4286300C9
:00000001FF
;PIC16F877A
