:020000040000FA
:100000004729A501A600A50AA60AA60B0828A50B44
:100010000A280800FA30FF3E0D280E28031D0B2881
:10002000052806120E1A061686128E1A8616061352
:100030000E1B061786138E1B8617851401300120B0
:1000400085100130012008000F088E0011200310D8
:100050000F0DA6000310A60D0310A60D0310260D0C
:100060008E001120013001200800051010088F00BB
:100070002420080005148F00242008009208031D86
:1000800047281308803E003E900035206328120365
:10009000031D50281308803E403E90003520632801
:1000A00002301202031D5A281308803E143E9000AD
:1000B0003520632803301202031D63281308803E95
:1000C000543E900035200800023090003520080092
:1000D00001309000352008000E30900035200800D7
:1000E0000D309000352008000F30900035200800BA
:1000F0000C309000352008000830900035200800B2
:100100000C3090003520080008309500141C8B2816
:10011000043015079500941C9028023015079500AF
:10012000141D9528013015079500150890003520FD
:1001300008001C3090003520080018309000352051
:100140000800143090003520080010309000352051
:1001500008000730160596000310160DA6000310C0
:10016000A60D0310260D96001608403E900035207F
:1001700017083A2018083A2019083A201A083A2095
:100180001B083A201C083A201D083A201E083A2075
:1001900068200800831606128612061386130510BF
:1001A0008510831220088C001F088D00C8300120A4
:1001B000051085101430012030308E0011200530DC
:1001C000012030308E0011200130012030308E00AF
:1001D000112020308E00112028309000352008306A
:1001E00090003520013090003520063090003520F9
:1001F0000C30900035200230900035200800230894
:10020000003C0318072932300120A303FF2808000F
:1002100050303A2069303A2063303A2050303A204A
:1002200061303A2073303A2020303A2030303A2082
:100230002E303A2037303A202E303A2036303A20CD
:10024000080044303A2045303A204D303A204F30B3
:100250003A2020303A204C303A2043303A20443083
:100260003A204C303A2069303A2062303A20080077
:100270002408003C031846297C200A30A300FF20F4
:1002800080200A30A300FF20A40338290800103082
:100290009F000230A000CA208312960197010A3005
:1002A000980099019A0111309B000E309C009D012D
:1002B0009E01A9200130960097010A30980099010B
:1002C0009A019B010E309C0011309D009E01A920D7
:1002D0000130920093013E2021211430A300FF2021
:1002E0006420141494141411842048303A204F30A0
:1002F0003A204C303A2041303A201430A300FF20FD
:1003000070202830A300FF20742020303A200330D2
:10031000A300FF204D303A200330A300FF205530CA
:100320003A200330A300FF204E303A200330A300D0
:10033000FF2044303A200330A300FF204F303A2002
:100340000530A300FF20A1012108053C031CAE29B4
:10035000A1200A30A300FF20A10AA429A10121089D
:10036000053C031CB9290A30A300FF20A520A10ADF
:10037000AF296C20A1012108023C031CC6290530CD
:10038000A300FF202E303A20A10ABB290A30A30087
:10039000FF200330A40038210330A300FF20782081
:1003A00000303A20A5201430A300FF2001303A206D
:1003B0000330A300FF20A10121080F3C031CE62904
:1003C00099200130A300FF20A10ADC29A101210806
:1003D0000F3C031CF1299D200130A300FF20A10A3E
:1003E000E729A120A1200821A10121080D3C031C1F
:1003F000FF299D200130A300FF20A10AF529063026
:10040000A300FF200330A4003821682092010230AD
:1004100093003E2008210630A300FF200130A200F7
:100420002208053C031C632AA1012108073C031C88
:100430002E2A013092002108073C93003E203C30D8
:100440003A20013092002108083E93003E203E30C1
:100450003A200330A300FF20A10A152AA101210898
:10046000073C031C482A013092002108073C9300F6
:100470003E2020303A20013092002108083E9300AF
:100480003E2020303A200330A300FF20A10A2F2A6B
:10049000A1012108073C031C612A013092002108B8
:1004A00093003E203E303A200130920021080F3C5C
:1004B00093003E203C303A200330A300FF20A10AE5
:1004C000492AA20A102A0330A500E8300220682039
:0C04D0000330A500E8300220682963001A
:02400E00F23F7F
:00000001FF
;PIC16F84A
