:020000040000FA
:100000004B29A501A600A50AA60AA60B0828A50B40
:100010000A280800FA30FF3E0D280E28031D0B2881
:10002000052806120E1A061686128E1A8616061352
:100030000E1B061786138E1B8617851401300120B0
:1000400085100130012008000F088E0011200310D8
:100050000F0DA6000310A60D0310A60D0310260D0C
:100060008E001120013001200800051010088F00BB
:100070002420080005148F00242008009208031D86
:1000800047281308803E003E900035206428013048
:100090001202031D51281308803E403E9000352077
:1000A000642802301202031D5B281308803E143EB0
:1000B00090003520642803301202031D64281308C1
:1000C000803E543E900035200800023090003520DC
:1000D000080001309000352008000E3090003520D7
:1000E00008000D309000352008000F3090003520BA
:1000F00008000C30900035200800083090003520B2
:1001000008000C3090003520080008309500141CC1
:100110008C28043015079500941C92280230831215
:1001200015079500141D98280130831215079500B6
:10013000831215089000352008001C3090003520EF
:100140000800183090003520080014309000352049
:100150000800103090003520080007301605960082
:100160000310160DA6000310A60D0310260D960011
:100170001608403E9000352017083A2018083A200B
:1001800019083A201A083A201B083A201C083A207D
:100190001D083A201E083A2069200800831606121E
:1001A00086120613861305108510831220088C0012
:1001B0001F088D00C8300120051085101430012063
:1001C00030308E0011200530012030308E0011209B
:1001D0000130012030308E00112020308E0011209F
:1001E00028309000352008309000352001309000F4
:1001F00035200630900035200C309000352002303C
:100200009000352008002308003C03180B293230E9
:100210000120A3030329080050303A2069303A2016
:1002200063303A2050303A2061303A2073303A201F
:1002300020303A2030303A202E303A2037303A20E1
:100240002E303A2036303A20080044303A204530EB
:100250003A204D303A204F303A2020303A204C306E
:100260003A2043303A2044303A204C303A2069302A
:100270003A2062303A2008002408003C03184A293A
:100280007D200A30A300032181200A30A30003212E
:10029000A4033C29080010309F000230A000CE20AB
:1002A0008312960197010A30980099019A01113042
:1002B0009B000E309C009D019E01AD2001309600F8
:1002C00097010A30980099019A019B010E309C0019
:1002D00011309D009E01AD200130920093013E201F
:1002E00025211430A3000321652014149414141143
:1002F0008520831248303A204F303A204C303A2043
:1003000041303A201430A300032171202830A3008B
:100310000321752020303A200330A30003214D3003
:100320003A200330A300032155303A200330A300C4
:1003300003214E303A200330A300032144303A20F9
:100340000330A30003214F303A200530A3000321DE
:10035000A1012108053C031CB329A5200A30A300F4
:100360000321A10AA929A1012108053C031CBE29DA
:100370000A30A3000321A920A10AB4296D20A101FC
:100380002108023C031CCB290530A30003212E3099
:100390003A20A10AC0290A30A30003210330A40097
:1003A0003C210330A3000321792000303A20A9200A
:1003B0001430A300032101303A200330A3000321AD
:1003C000A10121080F3C031CEB299D200130A30053
:1003D0000321A10AE129A10121080F3C031CF629F0
:1003E000A1200130A3000321A10AEC29A520A5200A
:1003F0000C21A10121080D3C031C042AA12001307D
:10040000A3000321A10AFA290630A3000321033027
:10041000A4003C2169209201023093003E200C216F
:100420000630A30003210130A2002208053C031C72
:10043000682AA1012108073C031C332A01309200DD
:100440002108073C93003E203C303A2001309200C6
:100450002108083E93003E203E303A200330A3009E
:100460000321A10A1A2AA1012108073C031C4D2AD5
:10047000013092002108073C93003E2020303A20B2
:10048000013092002108083E93003E2020303A209F
:100490000330A3000321A10A342AA1012108073C4B
:1004A000031C662A01309200210893003E203E3052
:1004B0003A200130920021080F3C93003E203C304E
:1004C0003A200330A3000321A10A4E2AA20A152ACA
:1004D0000330A500E830022069200330A500E83091
:0604E00002206C296300FC
:00000001FF
;PIC16F84A
