:020000040000FA
:100000000008273C031D062800080F3C03180C2895
:10001000EE308000EE3008008C018D010008033CBA
:10002000031D14280008E73C03182B2810300D0787
:10003000800000300C070318800A8C0010088D0027
:10004000033000029000E8300002031C900380009F
:10005000100880000E280008003C031D312800080D
:10006000633C0318482801300D07900000300C074E
:100070000318900A8C0010088D00003000029000D8
:1000800064300002031C90038000100880002B28BD
:100090000008093C0318612800300D07900010305B
:1000A0000C070318900A8C0010088D000030000225
:1000B00090000A300002031C9003800010088000AA
:1000C00048280D08000790000C0800070318900A44
:1000D0008C0010088D000D0890000C080800080026
:00000001FF
;DEFAULT
