:020000040000FA
:100000002C2804308C008C0B0328062800000800E4
:1000100040308C008C0B0A280D28000008000120BD
:100020008D0B0F28080008208E0B132808000820CD
:100030000820082001200120012001200120202883
:100040002128222823282428080003308E0013208A
:1000500005308D000F2008002D2806308C008C0BF9
:100060002F28000042308C008C0B34280000012027
:10007000082001308D000F2008308E00132008204A
:10008000082008200120012001200120012048280B
:0E00900049284A284B284C28172025206300B9
:00000001FF
;PIC16F84A
